{
  "_format": "hh3-artifact-1",
  "contractName": "Bank",
  "sourceName": "contracts/Bank.sol",
  "abi": [
    {
      "inputs": [
        {
          "internalType": "uint256",
          "name": "required",
          "type": "uint256"
        },
        {
          "internalType": "uint256",
          "name": "available",
          "type": "uint256"
        }
      ],
      "name": "InsufficientFunds",
      "type": "error"
    },
    {
      "inputs": [],
      "name": "SelfTransferNotAllowed",
      "type": "error"
    },
    {
      "anonymous": false,
      "inputs": [
        {
          "indexed": true,
          "internalType": "address",
          "name": "user",
          "type": "address"
        },
        {
          "indexed": false,
          "internalType": "uint256",
          "name": "amount",
          "type": "uint256"
        },
        {
          "indexed": false,
          "internalType": "uint256",
          "name": "newBalance",
          "type": "uint256"
        }
      ],
      "name": "Deposit",
      "type": "event"
    },
    {
      "anonymous": false,
      "inputs": [
        {
          "indexed": true,
          "internalType": "address",
          "name": "from",
          "type": "address"
        },
        {
          "indexed": true,
          "internalType": "address",
          "name": "to",
          "type": "address"
        },
        {
          "indexed": false,
          "internalType": "uint256",
          "name": "amount",
          "type": "uint256"
        },
        {
          "indexed": false,
          "internalType": "uint256",
          "name": "newBalanceFrom",
          "type": "uint256"
        },
        {
          "indexed": false,
          "internalType": "uint256",
          "name": "newBalanceTo",
          "type": "uint256"
        }
      ],
      "name": "Transfer",
      "type": "event"
    },
    {
      "anonymous": false,
      "inputs": [
        {
          "indexed": true,
          "internalType": "address",
          "name": "user",
          "type": "address"
        },
        {
          "indexed": false,
          "internalType": "uint256",
          "name": "amount",
          "type": "uint256"
        },
        {
          "indexed": false,
          "internalType": "uint256",
          "name": "newBalance",
          "type": "uint256"
        }
      ],
      "name": "Withdrawal",
      "type": "event"
    },
    {
      "inputs": [
        {
          "internalType": "address",
          "name": "",
          "type": "address"
        }
      ],
      "name": "balances",
      "outputs": [
        {
          "internalType": "uint256",
          "name": "",
          "type": "uint256"
        }
      ],
      "stateMutability": "view",
      "type": "function"
    },
    {
      "inputs": [],
      "name": "deposit",
      "outputs": [],
      "stateMutability": "payable",
      "type": "function"
    },
    {
      "inputs": [
        {
          "internalType": "address",
          "name": "_user",
          "type": "address"
        }
      ],
      "name": "getBalance",
      "outputs": [
        {
          "internalType": "uint256",
          "name": "",
          "type": "uint256"
        }
      ],
      "stateMutability": "view",
      "type": "function"
    },
    {
      "inputs": [
        {
          "internalType": "address",
          "name": "_to",
          "type": "address"
        },
        {
          "internalType": "uint256",
          "name": "_amount",
          "type": "uint256"
        }
      ],
      "name": "transfer",
      "outputs": [],
      "stateMutability": "nonpayable",
      "type": "function"
    },
    {
      "inputs": [
        {
          "internalType": "uint256",
          "name": "_amount",
          "type": "uint256"
        }
      ],
      "name": "withdraw",
      "outputs": [],
      "stateMutability": "nonpayable",
      "type": "function"
    }
  ],
  "bytecode": "0x6080604052348015600e575f5ffd5b506104db8061001c5f395ff3fe608060405260043610610049575f3560e01c806327e235e31461004d5780632e1a7d4d1461008a578063a9059cbb146100ab578063d0e30db0146100ca578063f8b2cb4f146100d2575b5f5ffd5b348015610058575f5ffd5b50610078610067366004610406565b5f6020819052908152604090205481565b60405190815260200160405180910390f35b348015610095575f5ffd5b506100a96100a4366004610426565b610106565b005b3480156100b6575f5ffd5b506100a96100c536600461043d565b610250565b6100a9610381565b3480156100dd575f5ffd5b506100786100ec366004610406565b6001600160a01b03165f9081526020819052604090205490565b335f9081526020819052604090205481111561015857335f908152602081905260409081902054905162fae2d560e21b815261014f918391600401918252602082015260400190565b60405180910390fd5b335f9081526020819052604081208054839290610176908490610479565b90915550506040515f90339083908381818185875af1925050503d805f81146101ba576040519150601f19603f3d011682016040523d82523d5f602084013e6101bf565b606091505b50509050806102075760405162461bcd60e51b81526020600482015260146024820152733330b4b632b2103a379039b2b7321032ba3432b960611b604482015260640161014f565b335f8181526020818152604091829020548251868152918201527fdf273cb619d95419a9cd0ec88123a0538c85064229baa6363788f743fff90deb910160405180910390a25050565b6001600160a01b0382163303610279576040516352a7f8fb60e01b815260040160405180910390fd5b335f908152602081905260409020548111156102ce5760405162461bcd60e51b8152602060048201526014602482015273496e73756666696369656e742062616c616e636560601b604482015260640161014f565b335f90815260208190526040812080548392906102ec908490610479565b90915550506001600160a01b0382165f9081526020819052604081208054839290610318908490610492565b9091555050335f81815260208181526040808320546001600160a01b038716808552938290205482518781529384019190915282820152519192917fc817d75deaa278e988c41cf549ef38fe195ab65e0e64cd67ba47f0d185690d589181900360600190a35050565b335f908152602081905260408120805434929061039f908490610492565b9091555050335f8181526020818152604091829020548251348152918201527f90890809c654f11d6e72a28fa60149770a0d11ec6c92319d6ceb2bb0a4ea1a15910160405180910390a2565b80356001600160a01b0381168114610401575f5ffd5b919050565b5f60208284031215610416575f5ffd5b61041f826103eb565b9392505050565b5f60208284031215610436575f5ffd5b5035919050565b5f5f6040838503121561044e575f5ffd5b610457836103eb565b946020939093013593505050565b634e487b7160e01b5f52601160045260245ffd5b8181038181111561048c5761048c610465565b92915050565b8082018082111561048c5761048c61046556fea26469706673582212207bfd97e40f0a4953630fe37f9732c78b0801045b6336e0c6ebaa20ca8d2ec44364736f6c634300081c0033",
  "linkReferences": {},
  "deployedLinkReferences": {},
  "immutableReferences": {},
  "inputSourceName": "project/contracts/Bank.sol",
  "buildInfoId": "solc-0_8_28-eaff589e26cec5586b5c3b8811702b9853d8b2e6"
}